:100000000C94D7010C94FF010C94FF010C94712502
:100010000C9462250C94FF010C94FF010C940025B4
:100020000C94FF010C94FF010C94FF010C94FF0150
:100030000C94FF010C94FF010C94FF010C94FF0140
:100040000C94B6240C94FF010C94FF010C94FF0156
:100050000C94FF010C94FF010C94FF010C94FF0120
:100060000C94FF010C94FF01C600C804C600C8042C
:10007000E400C404E00464046C0062046C006204E4
:1000800060066006600660064604E800440CE00274
:100090004C04E0084406E2004444F0004444F0000C
:1000A0009001C8002C01C8002C0196004001960068
:1000B000FA007D002C017D00C8006400FA00640095
:1000C00096004B00C8004B005802F4019001130148
:1000D000B400D00741009001C80040063C009001E8
:1000E000A000B0042D002C018C00E80337005E0155
:1000F0007800200332002C0164000807B40090014E
:10010000C800500078058C009001A0005A00E80358
:1001100064002C018C006400200350005E01780014
:100120006E00F40132002C01640078009800900009
:10013000880080007800700068000E1121422111B3
:100140000E3C4295A1A195423C3C42A5A1A1A542ED
:100150003C3C42A59191A5423C7D12127D3D42421C
:100160003D3C41417C20555578384545383C41411E
:100170007C0000005F030003143E143E14246A2B2D
:100180001263130864633649562050031C22414110
:10019000221C28180E182808083E0808B070080805
:1001A000086060601806013E41413E427F40625156
:1001B0004946224149361814127F274545393E49A0
:1001C000493061110907364949360649493E280038
:1001D0008050102844282828442810025909063E37
:1001E00049555D0E7E11117E7F4949363E414122BF
:1001F0007F41413E7F4949417F0909013E41497A9A
:100200007F08087F417F413040413F7F0814637F72
:100210004040407F020C027F7F0408107F3E414136
:100220003E7F0909063E4141BE7F0909764649499C
:100230003201017F01013F40403F0F3040300F3F0E
:100240004038403F63140814630708700807615181
:1002500049477F4101061860417F0201024040404A
:10026000400102205454787F4444383844442838AC
:1002700044447F38545418047E0598A4A4787F041D
:100280000478447D404080847D7F102844417F4035
:100290007C047C04787C04047838444438FC2424AE
:1002A00018182424FC7C08040448545424043F44B3
:1002B0003C40407C1C2040201C3C403C403C4428AE
:1002C0001028449CA0A07C64544C0836417F4136E1
:1002D0000808040804000007000F0017001F00238F
:1002E0000027002B002F00330037003A003B003E70
:1002F00000430047004C0051005200550058005D7B
:100300000062006400670069006D0071007400788D
:10031000007C008000840088008C0090009400968F
:100320000098009B009E00A100A500AA00AE00B2AC
:1003300000B600BA00BE00C200C600CA00CD00D19F
:1003400000D500D900DE00E300E700EB00EF00F38A
:1003500000F700FC00000105010A010F011401185B
:10036000011A011E0120012301270129012D01315C
:1003700001350139013D014001440148014B014F64
:1003800001530156015B015F01630167016B016F5E
:1003900001730176017A017F01840189018D019049
:1003A000019301940197019B0100952523281124B5
:1003B0001FBECFEFD8E0DEBFCDBF13E0A0E0B1E0BD
:1003C000EAE5F8E502C005900D92A639B107D9F724
:1003D00024E0A6E9B3E001C01D92A835B207E1F719
:1003E00011E0C6EDD1E004C02197FE010E9445292D
:1003F000C53DD107C9F70E9416270C94202C0C94F8
:100400000000CF93DF93EC019A01462F2B833C83AE
:100410004D8384E690E09F838E83822F932FA4E206
:10042000B0E0009739F08130910599F1029711F40D
:10043000AAE2B0E08C919D8141E050E060E070E084
:1004400004C0440F551F661F771F9A95D2F7409539
:1004500048234C938B819C81E5E2F0E0009739F0D2
:1004600081309105C9F0029711F4EBE2F0E02081B0
:100470003D8181E090E0A0E0B0E004C0880F991FCA
:10048000AA1FBB1F3A95D2F7822B8083DF91CF91B1
:100490000895A7E2B0E0CECFE8E2F0E0E8CFDC01DB
:1004A0001296ED91FC91309719F080819181089519
:1004B000FC01FBCF2FB7F8946091AE037091AF03AE
:1004C0008091B0039091B1032FBF0895CF93DF9334
:1004D000809128048D7F80932804809130048D7F43
:1004E00080933004809140048D7F809340048091FC
:1004F00038048D7F80933804809148048D7F8093E9
:1005000048040E945A02C0912004D09121042097EF
:1005100069F088819981DC01ED91FC910284F38579
:10052000E02D09950A80DB81C02DF1CF10922704C0
:100530001092260410925104DF91CF9108950F93E9
:100540001F93CF93DF9300D000D0CDB7DEB78C01DF
:100550000E945A0269837A838B839C83D801ED9130
:10056000FC910280F381E02DBE016F5F7F4FC801D7
:1005700009950F900F900F900F90DF91CF911F91E1
:100580000F910895CF93DF93EC010E945A022B81C3
:100590003C81620F731F811D911D6D837E838F834C
:1005A0009887DF91CF9108950F931F93FC011282DA
:1005B00022E532E031832083748363830EEF1FEFE3
:1005C0002FEF3FEF0583168327833087672B21F0BA
:1005D0001F910F910C94C2021F910F9108954EEF3D
:1005E0005FEF6FEF7FEFFC01458356836783708772
:1005F00008950F931F93FB014081518162817381A4
:10060000FC0105811681278130854017510762075B
:100610007307C8F0DC0183819481480F591F611D65
:10062000711D458356836783708781E082830190C3
:10063000F081E02D0484F585E02DCD01099581E060
:100640001F910F91089580E0FBCF0F931F93CF93DD
:10065000DF93DC01ED91FC911197EE0FFF1FE45D3C
:10066000FE4F259134911296EC911297F0E0EE0F27
:10067000FF1FE20FF31F25913491D0E0C0E090E01E
:1006800080E020FF1AC014964C9114974250FC0150
:10069000E370FF274E0FFE01EE0FFF1FE60FF71F5F
:1006A00013965C91139751508C01159507951595EC
:1006B0000795500F508341832196359527950196D4
:1006C00080319105F1F6DF91CF911F910F9108953F
:1006D000EF92FF920F931F93CF93DF93CDB7DEB7C7
:1006E00028970FB6F894DEBF0FBECDBF7B011982ED
:1006F0001A821B821C821D821E821F821886BE01E6
:100700006F5F7F4F0E942503D70112964D915C9138
:10071000FE01319680E0BE01675F7F4F9181292FF6
:10072000092E000C330B241735074CF182609081A1
:1007300097FF29C088602417350734F4D701149631
:100740000D911C91020F131FD8012C9130E002C0B3
:10075000359527959A95E2F720FD80613296E61748
:10076000F707E0F228960FB6F894DEBF0FBECDBFB4
:10077000DF91CF911F910F91FF90EF90089597FF18
:10078000D6CF8160D4CF9830B4F28460D4CFFC014E
:100790008089FB0195E0899FE00DF11D1124EE0F8A
:1007A000FF1FE650FF4F859194910895DC01559607
:1007B000ED91FC91569753968D919C918E0F9F1FB2
:1007C000E817F90729F021912F3FD1F781E008952B
:1007D00080E00895CF92DF92EF92FF920F931F93E4
:1007E000CF93DF93CDB7DEB72D970FB6F894DEBF6A
:1007F0000FBECDBF8C01DC011296ED91FC9187817B
:1008000094E09C878D870E945A0227E030E040E008
:1008100050E00E94F4287A8769870E945A02637028
:100820006B8719821A821B821C821D821E821F8284
:1008300018867E01B9E0EB0EF11CBE016F5F7F4FA1
:10084000C7010E942503FE0131966F01D601119662
:100850008C91082E000C990BD8011296ED91FC9109
:10086000278130E0821793076CF021503109821BF9
:10087000930B9D85981B9D87BE016F5F7F4FC701BE
:100880000E942503B2E0CB0ED11CEC14FD04F1F65E
:1008900085E0FE013996D801579601900D928A9510
:1008A000E1F7D801ED91FC910688F789E02DC801A8
:1008B0000995B8016F5E7F4FC80147960E94680393
:1008C000829581702D960FB6F894DEBF0FBECDBF16
:1008D000DF91CF911F910F91FF90EF90DF90CF901C
:1008E0000895DC011496ED91FC911597E60FF71F22
:1008F00014968D919C91159712964D915C9113973A
:100900009A0122503109280F391F2E173F0718F07E
:1009100081818193EDCF840F951FFC011082129687
:100920008D919C911397019713969C938E93129798
:10093000089530E020E02617370741F0009731F0A6
:10094000FC01828193812F5F3F4FF5CF0895FC0119
:1009500082819381208131818217930764F4DB01C6
:100960002C91A481B581A80FB91F2C93828193810A
:100970000196938382830895CF93DF93FC012281B4
:10098000338180819181281739075CF4A481B58176
:10099000A20FB31FEB0188818C932F5F3F4F3383EE
:1009A0002283DF91CF910895DC011E96ED91FC9199
:1009B0001F971C962D913C912E0F3F1F2E173F071E
:1009C00079F08191982F92959F70DB014C9149139A
:1009D000F5CF8F7011969C919813F0CF80E0089519
:1009E00081E00895FC01608F0895FC01848D958D50
:1009F0000895FC01608B0895FC01818D928D08950E
:100A0000FC0161A30895FC018485958503970895F1
:100A1000FC019081937081E0933009F080E00895AB
:100A20000F931F93CF93DF93EC018B01CB01829641
:100A30000E940805882371F098819F5F988329811F
:100A4000921734F481E0DF91CF911F910F910895B7
:100A50001882F9CFC8014A960E940805882399F3A5
:100A600098819150988397FFEDCF99819150988309
:100A7000EACFCF93DF93EC010A960E94080581111B
:100A800012C0CE0142960E94080581110CC0CE0111
:100A900082960E940805811106C0CE014A96DF9118
:100AA000CF910C940805DF91CF910895282F8AEEFD
:100AB000820F893608F02FE3022E000C330B2551EC
:100AC0003048220F331FF901EB52FD4F859194916D
:100AD000F901ED52FD4F25913491821B089528E0D4
:100AE000261BFC0121870895FC01828191E0892762
:100AF0008283662301F190E080E0278128171906A0
:100B0000D1F0CCF04281442381F023813481280F3D
:100B1000391FD9015C91442359F025813681280F72
:100B2000391FD9015C930196E8CF25813681EFCF3B
:100B300023813481F4CF08958F929F92AF92BF9218
:100B4000CF92DF92EF92FF92CF93DF93FC018781E8
:100B5000861748F1A8E5B1E090E080E0812C912C67
:100B6000540183943D917501640104C0CC0CDD1CDB
:100B7000EE1CFF1C3A95D2F7EA01082E02C0D5956B
:100B8000C7950A94E2F7C0FF19C02C290196883056
:100B9000910541F782818823A1F00580F681E02D3F
:100BA000E60FF11D2083DF91CF91FF90EF90DF9052
:100BB000CF90BF90AF909F908F900895C0942C21BC
:100BC000E5CF0380F481E02DEBCF0F931F93CF93FC
:100BD000DF938C01C62FFC01D7814D1708F4D42F69
:100BE000CD1740F450E040E06C2FC8010E949C05F6
:100BF000CF5FF6CFDF91CF911F910F910895CF93E3
:100C0000DF93EC016E8948E0460F89859A850E9442
:100C1000E5051C861B861E861D8682E090E09A8B69
:100C2000898B8EEF9FEFAFEFBFEF8D839E83AF83F6
:100C3000B887DF91CF910895EF92FF920F931F93A2
:100C4000CF937C018B01C0E0F80141918F0150E00E
:100C50006C2FC7010E949C05CF5FC031A9F7CF91CF
:100C60001F910F91FF90EF900895FC018085681708
:100C700008F587814817F0F4828150E070E0222364
:100C8000F1F08823C1F00580F681E02DE40FF51F17
:100C9000685A7E4FDB012C9181E090E0A0E0B0E04B
:100CA00004C0880F991FAA1FBB1F2A95D2F7208165
:100CB000822B808308950380F481E02DE7CF882381
:100CC000C1F00580F681E02DE40FF51F685A7E4FD4
:100CD000DB012C9181E090E0A0E0B0E004C0880F3F
:100CE000991FAA1FBB1F2A95D2F78095908189234F
:100CF000E0CF0380F481E02DE7CF472F21E00C9473
:100D00003506CF92DF92EF92FF920F931F93CF930E
:100D1000DF936C01062F122FC7E0D0E0E42EF12CF8
:100D200097010C2E02C0359527950A94E2F72170A1
:100D3000412F602FC6010E94350621971F5FCF3FCC
:100D4000DC0771F7DF91CF911F910F91FF90EF902A
:100D5000DF90CF9008956F927F928F929F92AF9283
:100D6000BF92CF92DF92EF92FF920F931F93CF9398
:100D7000DF937C01722E6B01EA01F60181916F0114
:100D8000882309F44BC0F70190859C171D0609F0D4
:100D90000CF443C09AEE980FE82F993608F0EFE371
:100DA000EE0FFF0BE755FD4F25913491A901465CED
:100DB0005E4F5A010E945605082F10E04501800E33
:100DC000911E6C2EF70180858A149B0471F0F50149
:100DD0004491681628F4272D662DC7010E948106CC
:100DE000FFEFAF1ABF0A6394EDCFC00FD11F1C2FC6
:100DF0000C2F0F5F801708F4082F101760F4F7010D
:100E00008085181730F4272D40E0612FC7010E941C
:100E100081061F5FF2CF2196B0CF2196CE01DF91E0
:100E2000CF911F910F91FF90EF90DF90CF90BF90E7
:100E3000AF909F908F907F906F900895CF93DF93A6
:100E4000EC014F85588941505109588B4F876D856A
:100E50007E852E8989859A850E94AB06181619060B
:100E60005CF08B859C859E878D878D8990E0988B23
:100E70008F87DF91CF910895ED85FE8580810E9457
:100E8000560590E04F8558899A01280F391F37FF82
:100E9000F0CF2D853E852F5F3F4F3E872D870196F2
:100EA000840F951FE4CFCF93DF93EC010E941E07C0
:100EB0001A8261E089859A85DF91CF910C9474053F
:100EC000CF92DF92FF920F931F93CF93DF93EC01AA
:100ED000F42E7C876B877E876D876E8948E0460F8E
:100EE00089859A850E94E505EB85FC85808110E067
:100EF00000E0882379F06F010FEF1FEFF601819179
:100F00006F01882339F00E94560590E00196080F82
:100F1000191FF4CFE985FA8580858017110609F03D
:100F2000ECF481E090E09A8B898B8D8990E00196BA
:100F3000988B8F87CE010E941E07CE010E94C202AD
:100F4000FF20E1F161E089859A85DF91CF911F91C2
:100F50000F91FF90DF90CF900C9474051A8A198A34
:100F60008F89988D82309105B9F4208530E0201B5F
:100F7000310B388B2F874F8558896B857C852E895F
:100F8000CF010E94AB068EEF9FEFAFEFBFEF8D83D7
:100F90009E83AF83B887D4CF019769F4208530E072
:100FA000201B310B2F5F3F4F37FF02C02F5F3F4F9A
:100FB00035952795DECF188A1F86DDCFDF91CF913B
:100FC0001F910F91FF90DF90CF900895EF92FF92C5
:100FD0000F931F93CF93DF93FC01CB01EF016B962F
:100FE00014A220E323A377FF2AC09195819591094C
:100FF00031E08F010C5D1F4F28E05AE0E52EF12C07
:10100000B7010E943129805DD8018E938D01CB01FB
:10101000215011F00097A1F73323B1F08DE2DE01EA
:10102000A20FB11D8C93BE01620F711DCF01DF9124
:10103000CF911F910F91FF90EF900C946007009754
:1010400011F030E0D6CF27E02F5FEDCF0F931F9345
:10105000CF93DF938C01D0E0C0E0F80187818C173B
:101060001D0649F044F050E040E06C2FC8010E949A
:101070009C052196F2CFDF91CF911F910F9108959A
:10108000CF92DF92EF92FF920F931F93CF93DF9354
:10109000CDB7DEB728970FB6F894DEBF0FBECDBF31
:1010A0008C01FC01828193810E942608F8016589E8
:1010B0007689828193810E941C0619821A821B8282
:1010C0001C821D821E821F821886BE016F5F7F4FA9
:1010D000C80147960E942503CE0101967C016E014E
:1010E00099E0C90ED11CF701619171917F01F8015E
:1010F000828193810E947D06EC14FD04A1F761E0DA
:10110000F801828193810E94740528960FB6F894A5
:10111000DEBF0FBECDBFDF91CF911F910F91FF902A
:10112000EF90DF90CF9008950F931F93CF93DF93AD
:10113000EC018A819B810E9426086E857F858A81C9
:101140009B810E941C060A891B898A819B8101154B
:10115000110551F021E0F801408161810E943506BE
:10116000F80102811381F1CF688D615021E040E0E8
:101170000E94350621E040E0688D8A819B810E94B3
:10118000350621E041E0688D8A819B810E94350609
:10119000688D6F5F21E040E08A819B810E94350667
:1011A00061E08A819B81DF91CF911F910F910C9417
:1011B0007405CF93DF93EC012A813B81D901B5956A
:1011C000A795A80FB91FE881F98120FF08C08D916C
:1011D0009C911197E80FF91F0190F081E02DCD014E
:1011E000DF91CF910994FFCF0895CF93DF93EC0166
:1011F0008A819B810A960E94FF05E881F981068811
:10120000F789E02DCE01DF91CF9109940F931F93C1
:10121000CF93DF93EC018B018E899F89DC01ED91E7
:10122000FC910084F185E02D0995B801CE01DF9194
:10123000CF911F910F910C94F508FC01828581FDDF
:101240000AC0828981FD07C082A181FD04C0828D10
:1012500086958170089581E0089530E020E026179A
:10126000370741F0009731F0FC01818192812F5FB7
:101270003F4FF5CF0895FC01808994E0899FF001EC
:101280001124E60FF71FEE0FFF1FE056FF4F859169
:1012900094910895FC01608B0895FC0181899289E5
:1012A0000895FC01868108950F931F93CF93DF93D8
:1012B00000D000D0CDB7DEB7DC0100914C01109119
:1012C0004D0120914E0130914F0109831A832B83E8
:1012D0003C83E62F643008F0E3E0EC0FFD2FF11DB6
:1012E000818198E0981B19969C930F900F900F9016
:1012F0000F90DF91CF911F910F910895CF92DF92C0
:10130000EF92FF920F931F93CF93DF938C01C62F21
:10131000D42FFC01608570E090E080E00E94022AFA
:101320006B017C016D2F70E090E080E00E94002A4C
:101330009B01AC01C701B6010E945F296B017C01D2
:101340006C2F70E090E080E00E94002A9B01AC01CD
:10135000C701B6010E948E2A0E94D129D62FC8014A
:101360000E942608C0E0CD1761F0F8018085C817FB
:1013700030F420E04FEF6C2FC8010E948106CF5F50
:10138000F2CFDF91CF911F910F91FF90EF90DF90FF
:10139000CF900895CF93DF93EC010A960E94FF054A
:1013A000CE018F960E94FF05CE010E94260861E0C3
:1013B000CE01DF91CF910C947405CF92DF92FF9212
:1013C0000F931F93CF93DF93EC016C018AE0C80E5B
:1013D000D11CC6010E94FF058E01015D1F4FC8018F
:1013E0000E94FF0588E088A383E0F82EFF8E6D89B8
:1013F0007E8941E0C6010E946007FE01EB5BFF4F62
:1014000010823197F0826AAD7BAD41E0C8010E9445
:101410006007CE010E94260861E0CE01DF91CF91E6
:101420001F910F91FF90DF90CF900C94740521E0F5
:10143000FC01228B0895FC01128A4EEF5FEF6FEFE3
:101440007FEF428753876487758708950895FC016D
:1014500012820895DC01ED91FC910084F185E02D6C
:1014600009940F931F93CF93DF93EC018B018B8D26
:101470009C8D0E942A0A8D8D9E8D0E942A0A8F8D36
:1014800098A10E942A0AB801CE01DF91CF911F9145
:101490000F910C94F508CF93DF93EC010E94F508AF
:1014A0008A859B850E942A0A8C859D850E942A0A2E
:1014B0008E859F85DF91CF910C942A0A0F931F93FD
:1014C000CF93DF93EC011A8AEB89FC89808181FF3D
:1014D00044C080FF1EC0ED89FE89808180FD13C05D
:1014E00081E08A83E881F9810484F585E02DCE01CD
:1014F00009958E859F8599878887CE0105960E94DC
:10150000C2021C821B828A81DF91CF911F910F91B1
:1015100008958B819C81892BB1F71F82ED89FE890B
:10152000808180FF0DC081E090E09C838B838E855D
:101530009F8599878887CE0105960E94C202E3CFD6
:1015400082E090E09C838B838EEF9FEFAFEFBFEF45
:101550008A879B87AC87BD87D6CFAD89BE899C9192
:1015600091FF31C090FF18C080FDCDCF81E08A830C
:10157000E881F9810484F585E02DCE0109958E85F9
:101580009F8599878887CE0105960E94C20281E0D7
:1015900090E09C838B83B7CF8B819C81019709F06E
:1015A000B2CF1F82808180FF03C01C821B82BFCF0D
:1015B0008EEF9FEFAFEFBFEF8A879B87AC87BD872A
:1015C00082E090E0E6CF8E010B5F1F4FC8010E94C2
:1015D000F902882309F497CF1F8281E08A83E8818A
:1015E000F9810484F585E02DCE01099588899989D2
:1015F00099878887C8010E942A0A85CFFC018281C9
:101600000895FC0183819481A3E2B0E0009751F03A
:101610008130910529F0029729F4A9E2B0E002C0D7
:10162000A6E2B0E02C919081892F8470492F4170FF
:1016300030E0558102C0359527955A95E2F7217023
:10164000421307C0811109C09460908312821182F5
:101650000895882311F09B7F90830895CF93DF93A3
:10166000EC010E94010B888182FF14C029813A811C
:101670002F5F3F4F3A8329834E815F8124173507BF
:1016800048F01A82198280FD08C0816088838881B1
:1016900082608883DF91CF9108958E7FF7CFEF929C
:1016A000FF920F931F93CF93DF93EC018A819B816D
:1016B0000E942608688979898A819B810E947D061B
:1016C0000E851F85EC84FD84E00EF11E8A819B81CE
:1016D000E016F10651F0F80171918F01672F6295C4
:1016E0006F707F700E947D06F1CFFC01228131E096
:1016F00023272283DF91CF911F910F91FF90EF90CD
:1017000008958F929F92AF92BF92DF92EF92FF92D5
:101710000F931F93CF93DF93CDB7DEB728970FB604
:10172000F894DEBF0FBECDBF7C018B01FC0184802D
:101730009580FB018481898385818A8386818B835F
:1017400087818C8380858D8381858E8382858F833D
:1017500083858887CE0101965C01D12CF5014781F4
:1017600050E06D2DC4010E949C05F1E0AF1AB10854
:10177000D39488E0D812F2CFF70180859185880F45
:10178000991F080F191FF80160817181F701848189
:10179000958141E00A960E94600761E0F70184812B
:1017A000958128960FB6F894DEBF0FBECDBFDF91AE
:1017B000CF911F910F91FF90EF90DF90BF90AF906E
:1017C0009F908F900C947405AF92BF92CF92DF924E
:1017D000FF920F931F93CF93DF93CDB7DEB7289778
:1017E0000FB6F894DEBF0FBECDBF8C01DC011296A0
:1017F0008D919C910E942608D8011296ED91FC9142
:10180000139710A21296CD90DC90BAE0CB0ED11CAB
:10181000D801ED91FC910284F385E02DC801099572
:1018200040E0BC01C6010E94E607F801A280B38037
:1018300019821A8284E28B838C838D838E831F822C
:101840001886CE0101966C0188E0F82ED601179615
:101850004C9150E06F2DC5010E949C05B1E0CB1A60
:10186000D108F394E0E1FE12F1CF61E0D8011296C5
:101870008D919C9128960FB6F894DEBF0FBECDBF18
:10188000DF91CF911F910F91FF90DF90CF90BF908C
:10189000AF900C9474050F931F93CF93DF93EC01DB
:1018A0008B018A859B85DC01ED91FC910680F78197
:1018B000E02D09958C859D85DC01ED91FC910680DC
:1018C000F781E02D09958E859F85DC01ED91FC91D6
:1018D0000680F781E02D09951F8E1E8EB801CE017E
:1018E000DF91CF911F910F910C94E40B0F931F93F5
:1018F000CF93DF93EC018B018B8D9C8DDC01ED91FF
:10190000FC910680F781E02D09958D8D9E8DDC017F
:10191000ED91FC910680F781E02D09958F8D98A1BE
:10192000DC01ED91FC910680F781E02D0995B8016D
:10193000CE01DF91CF911F910F910C94E40B0F9387
:101940001F93CF93DF93EC018B018E899F89DC017C
:10195000ED91FC910680F781E02D0995B801CE014B
:10196000DF91CF911F910F910C94E40BCF93DF93F4
:10197000EC010E94E40B8A859B85DC01ED91FC91D2
:101980000680F781E02D09958C859D85DC01ED9120
:10199000FC910680F781E02D09958E859F85DC01FD
:1019A000ED91FC910680F781E02DDF91CF910994B4
:1019B000BF92CF92DF92EF92FF920F931F93CF933C
:1019C000DF93EC018A819B810E94260810E000E0F1
:1019D0008FE0C82ED12CB02EEA80FB80B601601BB0
:1019E000710B8F89988D0E942D09009729F1FC01B8
:1019F000408150E06B2DC7010E949C050F5F1F4F77
:101A00000031110541F78B89882331F06C897D897C
:101A10008A819B810E947D06EA81FB81828191E01F
:101A200089278283DF91CF911F910F91FF90EF90D3
:101A3000DF90CF90BF9008954E89DBCF1F93CF9357
:101A4000DF93EC01CB0142960E9408058823E1F068
:101A5000188D84E090E00E94FB2AFC011382128220
:101A600082E0808311838A899B89892BC9F0AC89A4
:101A7000BD891396FC93EE931297FD8BEC8B8E89A8
:101A80009F8901969F8B8E8BE881F9810688F78963
:101A9000E02DCE01099580E0DF91CF911F9108954F
:101AA000FB8BEA8BEACF0F931F93CF93DF93EC016D
:101AB0008B0184E090E00E94FB2AFC0113821282D9
:101AC000F80120813181FC01318320832A813B810F
:101AD000232B81F0EC81FD81938382839D838C8312
:101AE0008E819F8101969F838E83DF91CF911F917D
:101AF0000F9108959B838A83F1CFAF92BF92CF92CB
:101B0000DF92EF92FF920F931F93CF93DF9300D05A
:101B100000D000D0CDB7DEB78C017B0170E060E073
:101B20000E94C7035C0189E090E00E94FB2A6C01DF
:101B3000B5010E94D402D8011B96DC92CE921A976E
:101B4000DA82C982BE016F5F7F4FC7010E94530DC9
:101B500064E070E0C8010E94C7035C0189E090E086
:101B60000E94FB2A6C01B5010E94D402F801D586BF
:101B7000C486DC82CB82BE016D5F7F4FC7010E94AD
:101B8000530D62E070E0C8010E94C7035C0163E08E
:101B900070E0C8010E94C7036C0187E190E00E94D9
:101BA000FB2AFC01128280E492E09183808382E030
:101BB00090E094838383178282E592E09683858305
:101BC000118610868EEF9FEFAFEFBFEF828793876E
:101BD000A487B587B786A686D18AC08A81E0828B22
:101BE000C7014A96948B838B0896968B858BD80178
:101BF0001F96FC93EE931E97FE83ED83BE016B5FF1
:101C00007F4FC7010E94530DC8010E94EA03269628
:101C10000FB6F894DEBF0FBECDBFDF91CF911F91FD
:101C20000F91FF90EF90DF90CF90BF90AF9008950D
:101C3000AF92BF92CF92DF92EF92FF920F931F93DA
:101C4000CF93DF9300D000D000D0CDB7DEB78C01AA
:101C50007B01DC019196EC91B8E0EB9FF00111243F
:101C6000EE52FF4FA590B49089E090E00E94FB2ACD
:101C70006C01B5010E94D402F801D48EC38EDA82C1
:101C8000C982BE016F5F7F4FC7010E94530DD8010B
:101C90009196EC91B8E0EB9FF0011124EC52FF4FCC
:101CA000A590B49089E090E00E94FB2A6C01B501F8
:101CB0000E94D402F801D68EC58EDC82CB82BE0192
:101CC0006D5F7F4FC7010E94530DD80191968C9193
:101CD000B4E08B9FC00111240296880F991FFC016C
:101CE000EE52FF4FA590B490FC01EC52FF4FC5900F
:101CF000D49087E190E00E94FB2AFC01128280E4EC
:101D000092E09183808382E090E0948383831782C2
:101D100082E592E096838583118610868EEF9FEF91
:101D2000AFEFBFEF82879387A487B587B786A68674
:101D3000D18AC08A81E0828BC7014A96948B838BBB
:101D40000896968B858BD8019096FC93EE935F97BF
:101D5000FE83ED83BE016B5F7F4FC7010E94530D71
:101D6000D801ED91FC910688F789E02DC80109950D
:101D700026960FB6F894DEBF0FBECDBFDF91CF9190
:101D80001F910F91FF90EF90DF90CF90BF90AF9099
:101D90000895AF92BF92CF92DF92EF92FF920F938E
:101DA0001F93CF93DF9300D0CDB7DEB78C017B01BB
:101DB0006C018AE0C80ED11C87E18983BE016F5F88
:101DC0007F4FC6010E94BC0487E28983BE016F5F1A
:101DD0007F4FC6010E94BC0487E38983BE016F5F09
:101DE0007F4FC6010E94BC0485E0D80150968C93B9
:101DF000509787E051968C93519784E090E05396EA
:101E00009C938E93529755969C938E935497589685
:101E1000EC91F0E0EE0FFF1FE853FF4FA590B49058
:101E200089E090E00E94FB2A6C01B5010E94D40277
:101E3000F801D78AC68ADA82C982BE016F5F7F4FF6
:101E4000C7010E94530DD801ED91FC910688F789D6
:101E5000E02DC80109950F900F90DF91CF911F9150
:101E60000F91FF90EF90DF90CF90BF90AF900895CB
:101E70000F931F93CF93DF93EC018B0183E090E0EE
:101E80000E94FB2AFC0112821182F8012081FC01D0
:101E9000208329813A81232B81F0EB81FC8192837D
:101EA00081839C838B838D819E8101969E838D830C
:101EB000DF91CF911F910F9108959A838983F1CF7C
:101EC0004F925F926F927F929F92AF92BF92CF920A
:101ED000DF92EF92FF920F931F93CF93DF9300D087
:101EE00000D000D01F92CDB7DEB75C014BE0442E8E
:101EF000512C612C712C56E0952ECE0101966C016F
:101F0000750196E1E90EF11CF501838D948D4197E1
:101F100008F04EC00E945A02A30192010E94F428C8
:101F2000809196038617B1F360939603969EF00115
:101F30001124E050FF4FD601892D01900D928A9512
:101F4000E1F710E0898190E033E0959587953A9527
:101F5000E1F78370181770F08601902F9C190F5FBE
:101F60001F4F89818770981770F4B801C7010E94CC
:101F7000380FF3CF1F82BE01695F7F4FC7010E94F8
:101F8000380F1F5FDFCF10E0898190E025E0959545
:101F900087952A95E1F78370181708F0B5CF1F824F
:101FA000BE01695F7F4FC7010E94380F1F5FECCFF2
:101FB00027960FB6F894DEBF0FBECDBFDF91CF914D
:101FC0001F910F91FF90EF90DF90CF90BF90AF9057
:101FD0009F907F906F905F904F9008954F925F9287
:101FE0006F927F928F929F92AF92BF92CF92DF9229
:101FF000EF92FF920F931F93CF93DF931F92CDB772
:10200000DEB78C014B01DC015E968D919C915F9750
:102010008730910509F005C19196EC9091979096C3
:102020008C91E81AD12CC12CF12C5801B1E1AB0EE6
:10203000B11CCE14DF04CCF4F80160A170E08389F8
:1020400094896817790730F4181619061CF4C5012D
:102050000E9471041982BE016F5F7F4FC5010E940B
:10206000A704FFEFCF1ADF0AE4CFD80155966D9190
:102070007C91569712968D919C910E941C0661E06E
:10208000F801828193810E947405D8015C966D915C
:102090007C915D976E0D7F1D5D967C936E935C9732
:1020A0008091B2039091B3038617970758F4709309
:1020B000B3036093B20380E090E00E94AD2881E01A
:1020C000F8018683C8010E94D603882309F45EC004
:1020D00081E090E0D8015F969C938E935E97D80143
:1020E00012968D919C9113975E962D913C91213083
:1020F000310509F0AFC0FC01678130E020E0422FDC
:102100002617B0F4D8015396ED91FC9154972E17F1
:102110003F072CF455966D907C90620E731E2F5FD6
:102120003F4FF30150815F3F51F7D80190964C9398
:10213000FC014781D80190968C918F5F90E0282F09
:10214000841788F4F801638974898617970724F443
:1021500045885688480E591E0196D2013C913F3F52
:1021600071F3F80121A382E090E0D8015F969C937F
:102170008E935E971C968D919C91DC01ED91FC9164
:102180000084F185E02D099580E039C0F801178EB3
:10219000168E84859585DC01ED91FC910680F78192
:1021A000E02D0995F80165897689828193810E94E5
:1021B0001C0661E0D80112968D919C910E947405D5
:1021C000F80182859385DC01ED91FC910084F18515
:1021D000E02D0995F801E284F384D40152968C91A4
:1021E00061E070E080FD02C070E060E0C8010E9424
:1021F000C703F70194838383C8010E94EA030F9009
:10220000DF91CF911F910F91FF90EF90DF90CF90D2
:10221000BF90AF909F908F907F906F905F904F9006
:102220000895892B09F05BCFC8010E94D60388234B
:1022300019F3D8011A968D919C91DC01ED91FC91D6
:102240000680F781E02D099581E090E0F801978FF5
:10225000868F45CFF801658976890E941C06D801D2
:102260005E968D919C919C012B7F2230310511F05F
:10227000049739F4F80141A160A1828193810E9401
:10228000E50561E0D80112968D919C910E9474053C
:10229000F801868D978D99270196978F868F74CF39
:1022A0004F925F926F927F92AF92BF92CF92DF92E6
:1022B000EF92FF920F931F93CF93DF93CDB7DEB7CB
:1022C0002D970FB6F894DEBF0FBECDBF8C015B011A
:1022D00085E0F8017796DE01199601900D928A95B6
:1022E000E1F78D8581508D87B8016F5E7F4F6E015C
:1022F00089E0C80ED11CC6010E946803811126C066
:1023000085E0F601D801579601900D928A95E1F784
:10231000D801ED91FC910688F789E02DC801099557
:1023200080E02D960FB6F894DEBF0FBECDBFDF91D3
:10233000CF911F910F91FF90EF90DF90CF90BF90C2
:10234000AF907F906F905F904F900895F801868DC9
:10235000978D892B09F041C019821A821B821C8239
:102360001D821E821F821886BE016F5F7F4FC801CB
:1023700047960E942503FE013196412C512C3201D3
:10238000439420818181082E000C990BD80153962B
:102390004D915C915497841795072CF45596ED90C8
:1023A000FC90E80EF91EB301A20104C0440F551FB2
:1023B000661F771F2A95D2F7D7012C91842F822B85
:1023C0008C933296CE16DF06E1F6D801ED91FC91A2
:1023D0000688F789E02DC8010995B501C8010E945A
:1023E000EE0F9FCFEF92FF920F931F93CF93DF9348
:1023F00000D000D01F92CDB7DEB78C017B01DC018D
:102400001E968D919C91DC01ED91FC910190F081E3
:10241000E02D0995882381F1D8011E96ED91FC915C
:102420002381348185E0F8017796DE0111960190D1
:102430000D928A95E1F78C8191E0232B09F49FEFAF
:10244000890F8C83B8016F5E7F4FCE0101960E9489
:102450006803811111C085E0FE013196D8015796BD
:1024600001900D928A95E1F7D801ED91FC910688D3
:10247000F789E02DC8010995F801868D978D892B84
:10248000E9F084859585DC01ED91FC910190F08166
:10249000E02D099581110DC080E00F900F900F90F5
:1024A0000F900F90DF91CF911F910F91FF90EF90C0
:1024B0000895B701C8010E94EE0FEFCF8285938582
:1024C000DC01ED91FC910190F081E02D09958823CC
:1024D00019F3B701C8010E945011DFCFCF92DF92EC
:1024E000EF92FF920F931F93CF93DF9300D000D012
:1024F0001F92CDB7DEB7DC015E962D913C91232B68
:1025000011F080E042C07B018C01CB010A960E9451
:102510000805882359F185E0F8017796DE011196C8
:1025200001900D928A95E1F78B8190E0019683707E
:1025300099278B836801B1E1CB0ED11CB601CE0186
:1025400001960E94680381112EC085E0FE0131963C
:10255000D801579601900D928A95E1F7D801ED9137
:10256000FC910688F789E02DC8010995F701828959
:1025700081FFC7CF80FF58C0B701C8010E9450112A
:1025800061E070E0882309F451C00F900F900F9024
:102590000F900F90DF91CF911F910F91FF90EF90CF
:1025A000DF90CF90089583FF0BC0B601CE01019656
:1025B0000E94680383FF11C08C818F5F8C83F5CFED
:1025C00082FF0CC0B601CE0101960E94680382FF13
:1025D00004C08C8181508C83F5CF80E080FF0BC0DC
:1025E000B601CE0101960E94680380FF11C08D8163
:1025F0008F5F8D83F5CF81FF0CC0B601CE010196B0
:102600000E94680381FF04C08D8181508D83F5CFC6
:1026100080E084FDABCFB601CE0101960E94680335
:10262000882309F492CFA2CF70E060E0C8010E9435
:10263000C703D8011A96ED91FC9194838383CF014F
:102640000E942A0A5ECFEF92FF920F931F93CF93BF
:10265000DF93EC018B01EA84FB84DB0152968C91C1
:1026600061E070E080FD02C070E060E0CE010E9499
:10267000C703F701948383838A859B85DC01ED91F1
:10268000FC910084F185E02D09958E859F85DC0104
:10269000ED91FC910084F185E02D0995B801CE0102
:1026A0000E94F508CE010E94D603882351F0B8019C
:1026B000CE01DF91CF911F910F91FF90EF900C947D
:1026C000EE0FDF91CF911F910F91FF90EF90089542
:1026D000CF93DF93FC01218D328D4091B403509153
:1026E000B503640F752F711D6217730760F4EC0159
:1026F0003093B5032093B403B90182E090E00E94C7
:10270000AD2881E08E83DF91CF9108956F927F9203
:102710008F929F92AF92BF92CF92DF92EF92FF92F1
:102720000F931F93CF93DF93FC01DB018C9190E01B
:10273000648575858617970724F446855785480F65
:10274000591FEA01888190E011964C91119702C0BF
:10275000959587954A95E2F780FF44C0C12CD12C0E
:102760007601C3945C91852F90E06485758586170A
:10277000970724F426853785280F391F11964C9129
:102780001197E901088110E0042E02C01595079504
:102790000A94E2F700FF44C002811381E8011F811F
:1027A0005117F0F5861797072CF4C685D7853E019B
:1027B000680E791E4601570104C0880C991CAA1C9A
:1027C000BB1C4A95D2F7A4014095E301888184237C
:1027D0008883818D928D0196928F818F8C918F5FEE
:1027E0008C93C0CF8D01EF0164E6CF010E94681386
:1027F000EA81FB8181E0D8012C919781291708F4A7
:1028000080E0DF91CF911F910F91FF90EF90DF90CB
:10281000CF90BF90AF909F908F907F906F900895D2
:1028200081E0EFCFFC01858996890C94972BCF939B
:10283000DF93EC010E941214CE01DF91CF910C9432
:10284000972BEF92FF920F931F93CF93DF93FC018F
:10285000668177816115710549F480E090E0DF9130
:10286000CF911F910F91FF90EF900895EC0182811D
:10287000938162307105C8F0625071090E94990419
:102880007C01FC0182819381FC01008111810E9405
:10289000972BF70113821282FD82EC828E819F8139
:1028A00001979F838E83C801DACFFC01208131819B
:1028B000398328830E94972B1B821A821D821C82D7
:1028C0001F821E8288819981CACFEF92FF920F9357
:1028D0001F93CF93DF93FC012681378121153105AA
:1028E00049F480E090E0DF91CF911F910F91FF902C
:1028F000EF90089522303105A0F0EC010280F381C1
:10290000E02DE280F38000811181CF010E94972B9E
:10291000FB82EA828E819F8101979F838E83C8010B
:10292000E2CFDF91CF911F910F91FF90EF900C9428
:1029300021140F931F93CF93DF93EC0188E092E073
:10294000998388838E01005F1F4F8E899F89892B11
:1029500021F0C8010E946514F8CF8E859F85DF9114
:10296000CF911F910F910C94972BCF93DF93EC0194
:102970000E949914CE01DF91CF910C94972B0F9365
:102980001F93CF93DF93DC0116962D913C91621734
:10299000730738F080E090E0DF91CF911F910F91A5
:1029A00008956115710531F4DF91CF911F910F9159
:1029B0000C946514215031092617370731F4DF9143
:1029C000CF911F910F910C9421148C0161507109CA
:1029D000FC01828193810E949904DC011296ED91A1
:1029E000FC911397D081C1812281338113963C934E
:1029F0002E931297CF010E94972BF8018681978121
:102A00000197978386838D2F9C2FC6CFFC018685E7
:102A100097850C94972BCF93DF93EC010E940615BA
:102A2000CE01DF91CF910C94972BEF92FF920F93F1
:102A30001F93CF93DF93FC0126813781F12CE12C8A
:102A40002115310561F1EC0102811381223031053C
:102A500070F12250310990E080E08217930740F432
:102A60000115110551F0F801028113810196F5CF8E
:102A70002817390711F010E000E0F80182819381F6
:102A8000FC01E080F1800E94972BF80113821282F2
:102A90001D830C838E819F8101979F838E83C70145
:102AA000DF91CF911F910F91FF90EF900895F80162
:102AB0008081918199838883C8010E94972B1B8212
:102AC0001A821D821C821F821E82E880F980E7CF55
:102AD000AF92BF92DF92EF92FF920F931F93CF932B
:102AE000DF9300D0CDB7DEB78C017B01DB019A9676
:102AF0008C919A9781FF8CC080FF3BC0F801D184F4
:102B0000DD2079F01496ED91FC911597309731F016
:102B1000808191810E942A0AD12C1EC08D919C91A6
:102B2000F9CF81E081870190F081E02D0288F3895F
:102B3000E02DC801099589E090E00E94FB2A8C01F4
:102B400064EF71E00E94D4021A830983BE016F5FB3
:102B50007F4FC7010E94530D8D2D0F900F90DF9175
:102B6000CF911F910F91FF90EF90DF90BF90AF90AA
:102B70000895D80117968C911797882311F117960D
:102B80001C92179718961C92189750E040E06FE03F
:102B900012968D919C910E949C0561E0F8018281C2
:102BA00093810E947405D7011496ED91FC911597BD
:102BB000309759F10190F081E02D84EF91E09483FA
:102BC0008383F8018185882309F468C0D08481E07B
:102BD000D826D086D11062C011860190F081E02DF8
:102BE0000488F589E02DB701C8010995D70114962D
:102BF000ED91FC91309709F44FC0808191810E9442
:102C0000972BC7010E941515A7CFED91FC91D5CF49
:102C1000D80119968C91882309F440C0DB011496E1
:102C2000ED91FC913097B1F1A080B180D501ED918B
:102C3000FC910190F081E02DC5010995D82E8823E3
:102C400009F46ACFF70182A580FF66CF88EC90E097
:102C5000D50114969C938E931397C5010E942A0A5E
:102C600021E04FE0F8016781828193810E9435065F
:102C700061E0D80112968D919C910E947405F80133
:102C800087818F5F8783883008F446CF118610864E
:102C90001782ACCFFB01C8CFF701AFCFC7010E94AD
:102CA0001D09D12C882351F0D801ED91FC910684A7
:102CB000F785E02DB701C8010995D82EF70183A942
:102CC000882369F0D801ED91FC910088F189E02D0D
:102CD000B701C8010995882311F0DD24D394BD2DD7
:102CE000B170DB2E39CF0F931F93CF93DF93EC019D
:102CF0008E819F810097A9F0029778F08A819B814D
:102D0000FC01028113810E94972B1B830A838E8111
:102D10009F8101979F838E83EBCFCE010E94151573
:102D2000E7CFDF91CF911F910F9108950F931F93DC
:102D3000CF93DF938C01FC01C281D381209741F0B6
:102D4000888199810E94972B0A80DB81C02DF6CF64
:102D5000C801DF91CF911F910F910C947316EF92E0
:102D6000FF920F931F93CF93DF937C01E901FC0146
:102D700040835183628373831AAAC9010E94961605
:102D800019870887BE01C701DF91CF911F910F916D
:102D9000FF90EF900C94D908EF92FF920F931F933E
:102DA000CF93DF93EC017B01DB0118968D919C9111
:102DB000892B09F18C819D810E94CA098EE0F7015F
:102DC00082AB8E819F81DC01ED91FC910084F185C5
:102DD000E02D6A8509958E819F81DC01ED91FC9142
:102DE0000480F581E02DB701DF91CF911F910F9104
:102DF000FF90EF9009948E819F81DC01ED91FC9111
:102E00000680F781E02D09958823A1F081E090E00C
:102E1000998B888B8BE49AE19D878C871F861E8611
:102E200041EF5AE170E060E001E010E09701CE016F
:102E30000E94AF16DF91CF911F910F91FF90EF90FD
:102E40000895CF92DF92EF92FF920F931F93CF934B
:102E5000DF9300D0CDB7DEB77C016B01DB011896A4
:102E60008D919C911997892B19F110929B031092C7
:102E70009A038EE0D2968C9389E090E00E94FB2A20
:102E80007C0164E670E00E94D402FA82E982BE010D
:102E90006F5F7F4FC6010E94530D0F900F90DF911F
:102EA000CF911F910F91FF90EF90DF90CF900895F9
:102EB000CB010E941D09811106C0C6018A960E949D
:102EC0000805882359F043E15FE170E060E001E02C
:102ED00010E09601C7010E94AF16DFCFC6010E9425
:102EE0004F02DC01ED91FC910190F081E02D0995FC
:102EF000882399F2E0919A03F0919B03ED31F1055B
:102F000008F028C0EA57F84E0C944529A317BB17C0
:102F1000C217C417C717CA17CD17D717DA17DC1788
:102F2000DE17E017E317E617E917EC17F617F9179E
:102F3000FC17FF1702180C1809180F18111813188E
:102F400016181818631765E07DE0F70184819581F4
:102F50000E947D0680919A0390919B030196909325
:102F60009B0380939A0361E0D70114968D919C9105
:102F70000E94740592CF64E07DE0D70114968D9194
:102F80009C91E6CF63E0E0CF63E07CE0F6CF62E0C7
:102F90007CE0DBCF62E07BE0F0CF61E07BE0F7013B
:102FA000848195810E947D0662E07AE0E6CF61E04F
:102FB0007AE0CBCF65E0EFCF66E0FACF65E0F5CF02
:102FC00065E079E0C2CF65E078E0D7CF64E078E0F3
:102FD000BCCF64E077E0D1CF63E077E0F701848194
:102FE00095810E947D0664E076E0C7CF63E076E0DD
:102FF000ACCF63E075E0C1CF62E075E0A6CF62E0E0
:1030000074E0BBCF61E074E0F701848195810E9498
:103010007D0662E073E0B1CF61E073E096CF67E0D8
:10302000ECCF66E0E7CF66E074E08FCF65E0E8CFF5
:10303000C6010E944F0220ED37E0FC013483238358
:10304000C6010E944F020E942A0A84CFCF92DF92CB
:10305000EF92FF920F931F93CF936C017B01CB01F3
:103060008A960E940805C82F882351F043E15FE14A
:1030700070E060E001E010E09701C6010E94AF1629
:103080008C2FCF911F910F91FF90EF90DF90CF90F9
:103090000895AF92BF92CF92DF92EF92FF920F937B
:1030A0001F93CF93DF93CDB7DEB728970FB6F89471
:1030B000DEBF0FBECDBF7C016B01FB01808591851A
:1030C000892B09F458C0F701848195810E94DD099C
:1030D0008AE0F60182ABF701848195810E9426087F
:1030E000F701848195810A96208531856BE872E02D
:1030F000232B11F46EE772E040E00E946007F701B5
:10310000A480B580198280E88A8380E48B8380E282
:103110008C8381E18D838AE08E8384E08F8318869F
:10312000CE0101966C0110E0F601478150E0612F5D
:10313000C5010E949C05F1E0CF1AD1081F5F18302D
:1031400099F761E0C5010E94740561E0F70184818F
:10315000958128960FB6F894DEBF0FBECDBFDF91E4
:10316000CF911F910F91FF90EF90DF90CF90BF9084
:10317000AF900C947405C7010E942618811144C0B9
:10318000C60142960E940805882309F44EC0109299
:10319000B3031092B20370E060E080E090E00E9420
:1031A000AD281092B7031092B60370E060E084E09F
:1031B00090E00E94AD28109253041092520470E0E7
:1031C00060E089E090E00E94AD281092B503109273
:1031D000B40370E060E082E090E00E94AD2882E0FD
:1031E00090E0F701918B808B83E19FE19587848745
:1031F0001786168641EF5AE170E060E002E010E0C9
:103200009601C7010E94AF1628960FB6F894DEBF4C
:103210000FBECDBFDF91CF911F910F91FF90EF9027
:10322000DF90CF90BF90AF900895C6010A960E949C
:103230000805882309F44FCF4FE159E1DDCF8F9284
:103240009F92BF92CF92DF92EF92FF920F931F93C4
:10325000CF93DF93CDB7DEB760970FB6F894DEBF9C
:103260000FBECDBF6C017B01FB018085918500976E
:1032700021F125E02093A803019719F481E08093C0
:10328000A7038AE0F70182ABF601E480F580809124
:10329000A703823009F4E5C00CF04FC0882309F47D
:1032A0005FC0813009F49AC070E060E050E040E017
:1032B00030E020E090E080E09DC0C6010E9426182A
:1032C000811114C0C70142960E940805882301F1AC
:1032D0008091A703811122C049E458E170E060E0C9
:1032E00001E010E09701C6010E94AF1660960FB68C
:1032F000F894DEBF0FBECDBFDF91CF911F910F912C
:10330000FF90EF90DF90CF90BF909F908F900895A7
:10331000C7010A960E940805882339F043E15FE15E
:1033200070E060E002E010E0DDCFB70187EA93E0F3
:103330000E9410058823D1F2A7CF833009F49EC0E4
:10334000843009F0B1CF009152041091530470E120
:1033500063E053EE40E03CE320E091E883E04AC0C4
:103360008DEB898792E49A8725EA2B8739E93C8798
:103370003D872E879F87888B4E01F9E08F0E911C29
:1033800010E0F401478150E0612FC7010E949C05C5
:10339000F1E08F1A91081F5F183099F7F6018481C8
:1033A00095810A962085318563EA72E0232B11F01E
:1033B00069EA72E041E060960FB6F894DEBF0FBE96
:1033C000CDBFDF91CF911F910F91FF90EF90DF90D4
:1033D000CF90BF909F908F900C9460070091B203A4
:1033E0001091B30370E06CE158E040E033EE27EF5A
:1033F0009FEF8FEF79836A835B834C833D832E83BA
:103400009F838887CE0101964C01B12CF40147813E
:1034100050E06B2DC7010E949C05F1E08F1A9108C6
:10342000B39488E0B812F2CF61E0C7010E9474053E
:10343000F6018481958141E0B8010A9660960FB645
:10344000F894DEBF0FBECDBFDF91CF911F910F91DA
:10345000FF90EF90DF90CF90BF909F908F900C9453
:10346000E6070091B6031091B70370E06CE554E0F5
:1034700044E03CE320E290E28CE3BCCF0091B40353
:103480001091B50371E96BE654ED41E438E020E0BA
:1034900098E08CE1AFCFEF92FF920F931F93CF9301
:1034A000DF93EC017B01DB0118968D919C91892BB8
:1034B00009F47DC08C819D810E94CA098E819F8103
:1034C000892B09F44EC08AE0F70182AB8C819D8183
:1034D0000E94DD098E819F81DC0114962D913C9123
:1034E00015972130310509F043C0ED91FC9102841C
:1034F000F385E02D09958C379105D0F18C819D8164
:103500000A962885398566EB72E0232B11F062EC70
:1035100072E040E00E946007EC80FD80BFE2EB0EAD
:10352000F11C8E819F81DC01ED91FC910284F38579
:10353000E02D099540E0BC01C7010E94E60761E06B
:103540008C819D810E9474058E819F81009739F046
:10355000DC01ED91FC910280F381E02D09951F8241
:103560001E82DF91CF911F910F91FF90EF900895F0
:103570008E819F81DC01ED91FC910484F585E02D25
:1035800009952C813D81811106C040E06DEE72E00D
:10359000C9010A96BFCFC9010A96288539856CED05
:1035A00072E0232B09F0B5CF6DEC72E0B2CFCB0106
:1035B0000E943905882359F043E15FE170E060E043
:1035C00002E010E09701CE010E94AF16CACFB7010A
:1035D000CE01DF91CF911F910F91FF90EF900C944E
:1035E0002618CF92DF92EF92FF920F931F93CF9303
:1035F000DF9300D0CDB7DEB77C016B01DB011896FD
:103600008D919C91892B51F11092A603F701848131
:1036100095810E94CA0989E090E00E94FB2A7C0102
:103620006CE070E00E94D402FA82E982BE016F5F12
:103630007F4FC6010E94530DD601D2968C91D2972E
:103640008C60D2968C930F900F90DF91CF911F9149
:103650000F91FF90EF90DF90CF900895C7010E94E7
:1036600026188111F0CFC6010E944F02DC01ED91B6
:10367000FC910190F081E02D0995882321F31091B0
:10368000A603D7011496ED91FC91159720858781AB
:10369000289FC0011124959587951817190694F154
:1036A0001C968D919C911D97892B21F41E968C91CF
:1036B00080FF1DC0F70184859585A685B785808329
:1036C0009183A283B3831586148617861686D60146
:1036D000D2961C9200891189C6010E949616F601A5
:1036E00011870087B601C7010E94D908ACCF43E11A
:1036F0005FE170E060E001E010E09601C7010E9428
:10370000AF16A1CF812F622F0E9425296FEF620F84
:10371000691B21E0482FCF010E943506D70114967E
:10372000ED91FC916085812F0E94252947814150B0
:10373000481B21E0692FCF010E94350661E0F701A7
:10374000848195810E9474051F5F1093A6037BCF2F
:10375000EF92FF920F931F93CF93DF937C01EB01C6
:1037600088859985892B09F1F701848195810E94CB
:10377000DD098885998523E020939F03019711F443
:1037800010929E038AE08AAB60919E03FCE06F0278
:10379000B00111246C537E4FC701DF91CF911F916F
:1037A0000F91FF90EF900C94810BC7010E94261897
:1037B000811117C0CE0142960E940805882331F17D
:1037C000CE010E94961681E090E0998788878091CB
:1037D0009E03813069F08230B1F049ED53E28823D5
:1037E00049F0DF91CF911F910F91FF90EF900895D5
:1037F00040EE52E270E060E001E010E09E01C7019F
:103800000E94AF16EECF44E652E2F4CFCE010A9604
:103810000E940805882339F043E15FE170E060E031
:1038200002E010E0EBCFBE018EE993E00E941005AC
:103830008111AACFD6CFEF92FF921F93CF93DF9340
:10384000FC012581368110E02115310599F0EC014C
:1038500081819281FC0110812230310590F0E1805C
:10386000F2800E94972BFA82E9828D819E810197D6
:103870009E838D83812FDF91CF911F91FF90EF90D9
:10388000089518830E94972B1A8219821C821B822A
:103890001E821D821881EECFAF92BF92CF92DF922F
:1038A000EF92FF920F931F93CF93DF9300D000D03E
:1038B00000D01F92CDB7DEB78C017B0170E060E0D5
:1038C0000E943B095C0189E090E00E94FB2A6C01A8
:1038D000B5010E94D402D8011B96DC92CE921A97B1
:1038E000DA82C982BE016F5F7F4FC7010E94530D0C
:1038F00089E090E00E94FB2A6C0164E170E00E9484
:10390000D402F801D586C486DC82CB82BE016D5F0D
:103910007F4FC7010E94530D62E070E0C8010E9412
:103920003B095C0163E070E0C8010E943B096C0147
:1039300087E190E00E94FB2AFC01128280E492E081
:103940009183808382E090E094838383178282E571
:1039500092E096838583118610868EEF9FEFAFEFFE
:10396000BFEF82879387A487B587B786A686D18A5B
:10397000C08A81E0828BC7014A96948B838B08961C
:10398000968B858BD8011F96FC93EE931E97FE8332
:10399000ED83BE016B5F7F4FC7010E94530D83E033
:1039A000F801848B8FE0858B6801F6E1CF0ED11C86
:1039B000D8015B968D919C91892B21F0C6010E94C4
:1039C0001B1CF6CF8CE0F82E1F82BE01695F7F4F73
:1039D000C6010E94380FFA94F110F6CFC8010E9478
:1039E000600FD801ED91FC910688F789E02DC801A0
:1039F000099527960FB6F894DEBF0FBECDBFDF91B5
:103A0000CF911F910F91FF90EF90DF90CF90BF90DB
:103A1000AF9008950F931F93CF93DF93EC0184E64B
:103A200091E0998388838E010A5E1F4F8B8D9C8D58
:103A3000892B21F0C8010E941B1CF8CFDF91CF9188
:103A40001F910F910895CF93DF93EC010E940A1DFF
:103A5000CE01DF91CF910C94972B0F931F93CF93AF
:103A6000DF93EC018D898E300CF440C081508D8B3A
:103A700089899A8901969A8B898B009152041091B9
:103A800053040817190710F481E08E83CE010E94B9
:103A9000600F8D896FE070E0681B710987FD739579
:103AA0008F89988D0E942D09009729F1FC01808152
:103AB00090E02C8902C0959587952A95E2F780FFC2
:103AC0001CC069897A8981E00617170750F48E8334
:103AD000709353046093520489E090E00E94AD28F3
:103AE00081E0DF91CF911F910F910895CE0146960D
:103AF0000E941B1CBDCF8E89DBCFE881F98106882F
:103B0000F789E02DCE01099580E0EBCF1F93CF938D
:103B1000DF93EC018A859B85DC01ED91FC9101909E
:103B2000F081E02D0995811147C08E859F85DC01CC
:103B3000ED91FC910190F081E02D0995882321F110
:103B40001C89EE85FF8583819481892B09F43EC011
:103B500081E0180F1830C0F48D896FE070E0681BA9
:103B6000710987FD73958F89988D0E942D090097A3
:103B700079F1FC01808190E0012E02C09595879536
:103B80000A94E2F780FF1C8B8C859D85DC01ED910A
:103B9000FC910190F081E02D0995882321F08B891B
:103BA00091E089278B8BE881F9810688F789E02DE0
:103BB000CE01099580E006C0CE010E942D1D88230C
:103BC00009F4B3CFDF91CF911F9108958FEFC1CF4B
:103BD0008E89D1CFCF93DF93FB01228921FF18C0BB
:103BE000EC0120FF09C00E942D1D61E070E08823D8
:103BF00029F0DF91CF91089570E060E0CE010E943E
:103C00003B09EA85FB8594838383CF010E942A0ABE
:103C100080E0EFCF0F931F93CF93DF931F92CDB729
:103C2000DEB78C01065F1F4FFC0184859585181651
:103C300019062CF470E060E0C8010E9471040E9433
:103C4000812860E071E00E9431298983BE016F5FA5
:103C50007F4FC8010E94A7040F90DF91CF911F9161
:103C60000F9108958F929F92AF92BF92CF92DF9261
:103C7000EF92FF920F931F93CF93DF93EC018B8D05
:103C80009C8DDC01ED91FC910190F081E02D099576
:103C9000882309F454C0CE010E940A1E10E000E0FF
:103CA0005E01B0E1AB0EB11C8E899F890817190720
:103CB000B8F4B8018A899B890E949904BC01892BB8
:103CC00009F4B501CE010E948613882331F0B801B2
:103CD000C5010E94BF14015011090F5F1F4FE4CFAF
:103CE0008C859D851816190614F48E849F84F40122
:103CF0002081211112C002972CF0CE84DF84FFEFC7
:103D0000CF1ADF0AD6018C9190E0288D02C09595DC
:103D100087952A95E2F780FF12C060E0CE010E94ED
:103D2000681381E0DF91CF911F910F91FF90EF9089
:103D3000DF90CF90BF90AF909F908F9008958D8D22
:103D40009E8DDC01ED91FC910190F081E02D0995B3
:103D5000882371F110E000E06E01B0E1CB0ED11CC0
:103D60008E899F890817190718F5AA88BB88B8019A
:103D7000C5010E949904FC01892B09F4F601808198
:103D80008F5F8083B801C5010E949904BC01892B13
:103D900009F4B601CE010E948613882331F0B801E0
:103DA000C6010E94BF14015011090F5F1F4FD8CFE9
:103DB0008F8D98A1DC01ED91FC910190F081E02DB7
:103DC0000995882301F1EF8DF8A123813481888D35
:103DD0002115310509F5882311F08150888F8C85D4
:103DE0009D8502972CF0EE84FF84BFEFEB1AFB0A4F
:103DF000F701808190E0288D02C0959587952A95DE
:103E0000E2F780FD8ACFE881F9810688F789E02D05
:103E1000CE01099580E086CF2130310501F787304A
:103E2000F0F68F5FDBCF6F927F928F929F92AF926F
:103E3000BF92CF92DF92EF92FF920F931F93CF9397
:103E4000DF931F92CDB7DEB76C015B01DB011896E3
:103E50008D919C910097E9F026E020939D030197B6
:103E600019F482E080939C03F601848195810E947D
:103E7000DD098AE0D501D2968C9360919C03BCE069
:103E80006B02B001112464587E4FC6010E94810B61
:103E90002CC0CB0142960E940805882309F47EC1FC
:103EA000E0909C034FE159E1EE20B9F0B1E048EA1F
:103EB0005BE1EB1691F00E2C000CFF08E2E0EE1A2D
:103EC000F108F1E0EF16F10409F4B3C0F4F4E114E1
:103ED000F10409F44AC04CEC56E170E060E001E006
:103EE00010E09501C6010E94AF160F90DF91CF91AF
:103EF0001F910F91FF90EF90DF90CF90BF90AF9008
:103F00009F908F907F906F900895A2E0EA16F10441
:103F100009F4DBC0B3E0EB16F104E9F68DE190E0C3
:103F20000E94FB2AFC01D60114968D919C91159755
:103F300093838283F582E48216821782108611862B
:103F400084E691E091838083128A118A81E0838BD9
:103F5000148A158A108E178A128E118E148E138E63
:103F60001796FC93EE931697B6CF82E290E00E94EC
:103F7000FB2A8C01F60184809580DC0113969C92CB
:103F80008E92129715961C921E92149716961C925A
:103F9000169717961C92179718961C9218971996B1
:103FA0001C92199784E292E08D939C933801B1E1C1
:103FB0006B0E711CF401878190E0D80152969C939E
:103FC0008E93519754961C921E9253970E94FB2AEF
:103FD000F801968B858B90E080E0D80151962D9169
:103FE0003C9152978217930744F45596ED91FC91BA
:103FF000E80FF91F10820196F0CFF801128E138E90
:10400000158E148E178E168E82E0808BD401179633
:104010008C918E151F0409F00CF453C01982BE0157
:104020006F5F7F4FC3010E94A704BFEFEB1AFB0A2B
:10403000EDCF89E190E00E94FB2A8C01D601149615
:10404000ED91FC91DC011396FC93EE93129715967B
:10405000FC92EE92149716961C92169717961C9245
:10406000179718961C92189719961C9219978CEE10
:1040700091E011969C938E93E7808085E89E700175
:1040800011241B96FC92EE921A971D961C921E927A
:104090001C97C7010E94FB2AF80186879787FC01BD
:1040A000E80EF91EEE16FF0611F01192FBCFD801B3
:1040B00050961C92509751961C92519782E05896B8
:1040C0008C93F6011783068306CF82E290E00E946C
:1040D000FB2A8C01D60114968D909C90FC01938252
:1040E0008282F582E482168217821086118688E029
:1040F00092E0918380833801FAE06F0E711CD40145
:1041000017968C9190E0F801938782871586148624
:104110000E94FB2AD8011F969C938E931E9790E0D5
:1041200080E0F801228533858217930744F40684E2
:10413000F785E02DE80FF91F10820196F2CF118A62
:10414000138A128A158A148A178A168A128E118E79
:1041500082E081A383E0808FF12CE12CF401878140
:104160008E151F0409F07CF4C8010E940A1EC801C4
:104170000E940A1EC8010E940A1ED60117961C93AF
:104180000E931697A8CE1982BE016F5F7F4FC301B1
:104190000E94A704BFEFEB1AFB0AE0CFC5018A9685
:1041A0000E940805882321F082E080939C0365CE5D
:1041B000B5018CE993E00E94100581115ECE95CE89
:1041C000AF92BF92CF92DF92EF92FF920F931F9325
:1041D000CF93DF9300D000D0CDB7DEB7DC0154968B
:1041E0002D913C91559753963C932E9352971B8259
:1041F0001C822130310509F4BCC050F02230310559
:1042000009F4B5C02330310509F4B6C080E0A0C080
:1042100021E02C83FC01A684B78444855585D50113
:10422000A40FB51F9D0121503109F9012081622F92
:1042300062956F703B81630F6B832F703C81230FFE
:104240002C83FC0102811381F801F08467FF96C082
:104250003FEF3F0D3B83F801678127FF99C02FEFA8
:10426000260F2C838C01CB80FC018089C8129AC058
:10427000DC808189D81296C06F9DB0011124461749
:1042800057072CF50E945A02B62E19821A82A89559
:104290000E9481288B0D8F70F82E0E9481288B0D33
:1042A0008770E82E8983FA82BE016F5F7F4FC80155
:1042B0000E94D404882359F3EC1002C0FD1439F392
:1042C00089819A81D80151969C938E935097D801F9
:1042D000ED91FC910284F385E02DC80109950196CA
:1042E0002091B6033091B70328173907B0F4D801ED
:1042F000ED91FC910284F385E02DC8010995BC0184
:104300006F5F7F4F7093B7036093B60384E090E0D4
:104310000E94AD2881E0F8018683BE016D5F7F4F6A
:10432000C8010E94D404A801465F5F4F9C819F7022
:104330002B81F0E12F9F90011124922B9983BE01D4
:104340006F5F7F4F811144C0CA010E94BC0481E0AD
:104350000F900F900F900F90DF91CF911F910F91C1
:10436000FF90EF90DF90CF90BF90AF9008952FEF28
:1043700050CF21E02B834ECF2FEFFCCF062E000C29
:10438000770BF616170611F00CF065CF1B8263CF82
:10439000022E000C330B6217130611F00CF062CFE3
:1043A0001C8260CF141615060CF091CFF501CA01DE
:1043B00002978A0D9B1D8E179F0718F0218121936C
:1043C000FACF1C9241505109F801558744877FCF9D
:1043D000CA010E94BC04D801ED91FC910688F789BE
:1043E000E02DC801099512CFCF93DF93EC018E89A0
:1043F0009F89DC01ED91FC910190F081E02D099500
:10440000882329F0CE01DF91CF910C94E02080E049
:10441000DF91CF9108950F931F93CF93DF93EC011A
:104420008B01CB010E943905882309F447C0C801DC
:104430000A960E940805882391F08A899B898D7FBE
:10444000892BE1F11D8A1C8A8E899F890E942A0A84
:10445000CE01DF91CF911F910F910C94E020C80104
:1044600082960E940805882351F08A899B898D7F56
:10447000019721F181E090E09D8B8C8BE5CFC80105
:104480004A960E940805882359F08A899B898130C1
:104490009105A1F00397029788F083E090E0ECCFBC
:1044A000C80142960E940805882341F08A899B89A9
:1044B0008D7F892B19F082E090E0DECF80E0DF91E4
:1044C000CF911F910F910895EF92FF920F931F9339
:1044D000CF93DF93EC017B01FB0180859185892BD4
:1044E000A9F181E0288539852130310509F480E082
:1044F00092E09093A5038093A4038C819D810E94F8
:10450000DD098AE0F70182AB8C819D810A962091BA
:10451000A4036FEF72E0211102C067EF72E040E088
:104520000E9460078C819D818F962091A40369E091
:1045300073E0211102C067E073E041E0DF91CF91A9
:104540001F910F91FF90EF900C946007CE010E9495
:104550002618811126C0C70142960E9408058823AB
:1045600039F16091A403862F062E000C990B9987D0
:10457000888787E090E00E949F2882E090E0998BF6
:10458000888B88EA9BE19D878C871F861E8641EF7A
:104590005AE170E060E002E010E09701CE010E9475
:1045A000AF16DF91CF911F910F91FF90EF9008957B
:1045B000B70184EA93E00E9410058111A5CFF1CFE5
:1045C000CF92DF92EF92FF920F931F93CF93DF93DF
:1045D00000D0CDB7DEB77C016B01DB0118968D9161
:1045E0009C91892B09F46DC0F701848195810E940B
:1045F000DD09D7011B968C9194E09093A3038093DF
:10460000A2038EE0F60182AB87E190E00E94FB2AD4
:10461000FC01128280E492E09183808382E090E04A
:1046200094838383178282E592E096838583118643
:1046300010868EEF9FEFAFEFBFEF82879387A4873F
:10464000B58784EF91E09787868780E991E0918B29
:10465000808B81E0828BC6014A96948B838B08966F
:10466000968B858BFA83E983BE016F5F7F4FC6010E
:104670000E94530D6091A2036F5F4091A303D70185
:1046800014968D919C910E947E096091A203062E42
:10469000000C770B6F5F7F4FF7018481958141E0BC
:1046A0000A960E94E607D70114968D919C91DC0131
:1046B000ED91FC910190F081E02D6091A2030995AC
:1046C0003CC0C7010E942618811137C0C60142961E
:1046D0000E9408058823E1F16091A203D7011B968F
:1046E0006C931B9714968D919C91DC01ED91FC913C
:1046F0000190F081E02D0995F701638586E090E057
:104700000E949F2882E090E0D70151969C938E935F
:10471000509788EA9BE11D969C938E931C971F9659
:104720001C921E921E9741EF5AE170E060E002E099
:1047300010E09601C7010E94AF160F900F90DF9115
:10474000CF911F910F91FF90EF90DF90CF90089540
:10475000C6010A960E940805882319F048EA5BE121
:10476000E4CFC6010E944F026C01DC01ED91FC9187
:104770000190F081E02D0995882309F47BCF809189
:10478000A203F601238134812130310561F4909137
:10479000A3038F5F89171CF48093A2036BCF915002
:1047A0009093A20367CF815087FFF6CF1092A203A8
:1047B00061CFCF92DF92EF92FF920F931F93CF932F
:1047C000DF9300D0CDB7DEB77C016B01DB0118961B
:1047D0008D919C91892B09F45FC0F701828595E04A
:1047E0009093A1038093A003848195810E94DD09A9
:1047F0008EE0D601D2968C9387E190E00E94FB2A4E
:10480000FC01128280E492E09183808382E090E058
:1048100094838383178282E592E096838583118651
:1048200010868EEF9FEFAFEFBFEF82879387A4874D
:10483000B58784EF91E0978786878CE291E0918B32
:10484000808B81E0828BC6014A96948B838B08967D
:10485000968B858BFA83E983BE016F5F7F4FC6011C
:104860000E94530D6091A0036F5F4091A103D70197
:1048700014968D919C910E947E096091A003062E52
:10488000000C770B6F5F7F4FF7018481958141E0CA
:104890000A960E94E6072EC0C7010E9426188111C1
:1048A00029C0C60142960E940805882371F16091D3
:1048B000A003F701628788E090E00E949F2882E0D1
:1048C00090E0D70151969C938E93509788EA9BE194
:1048D0001D969C938E931C971F961C921E921E975A
:1048E00041EF5AE170E060E002E010E09601C7019C
:1048F0000E94AF160F900F90DF91CF911F910F91F3
:10490000FF90EF90DF90CF900895C6010A960E9425
:104910000805882319F048EA5BE1E4CFC6010E944C
:104920004F026C01DC01ED91FC910190F081E02DD2
:104930000995882309F496CF8091A003F60123817D
:1049400034812130310561F49091A1038F5F891783
:104950001CF48093A00386CF91509093A00382CF44
:10496000815087FFF6CF1092A0037CCF1F920F9249
:104970000FB60F9211242F933F938F939F93AF9372
:10498000BF938091AE039091AF03A091B003B0911B
:10499000B1033091AD0326E0230F2D3758F5029671
:1049A000A11DB11D2093AD038093AE039093AF037F
:1049B000A093B003B093B1038091A9039091AA038F
:1049C000A091AB03B091AC030196A11DB11D8093E2
:1049D000A9039093AA03A093AB03B093AC03BF9138
:1049E000AF919F918F913F912F910F900FBE0F909C
:1049F0001F90189529E8230F0396A11DB11DD2CF52
:104A00001F920F920FB60F9211242F933F934F9343
:104A10008F939F93EF93FF93809198038F5F809381
:104A20009803883048F01BB89091D3038091980385
:104A30008917B0F1109298032A988091CC038823AB
:104A4000D9F08091CD039091CE032091980330E06E
:104A5000FC01E20FF31F4091D103240F311D820F9F
:104A6000931F8E179F0769F0208120952EBD0DB4EE
:104A700007FEFDCF3896F5CF8091CF039091D003FC
:104A8000E4CF1BB82A9AE0919803F0E0E05BFE4F78
:104A9000208181E090E001C0880F2A95EAF78BB968
:104AA0008FEF8093B20081E080939903FF91EF91A3
:104AB0009F918F914F913F912F910F900FBE0F902B
:104AC0001F9018951F920F920FB60F9211248F937B
:104AD00081E0809397038F910F900FBE0F901F90EE
:104AE00018951F920F920FB60F9211242F933F9398
:104AF0004F935F936F937F938F939F93AF93BF93E6
:104B0000EF93FF930E946225FF91EF91BF91AF91C8
:104B10009F918F917F916F915F914F913F912F91D5
:104B20000F900FBE0F901F901895BF92CF92DF92FB
:104B3000EF92FF920F931F93CF93DF9380E090E06B
:104B40000E9499289093B3038093B20382E090E08F
:104B50000E9499289093B5038093B40384E090E079
:104B60000E9499289093B7038093B6031092210472
:104B70001092200410922304109222041092250413
:104B8000109224041092270410922604C1E0D0E071
:104B900041E050E062E088E294E00E94010241E0DE
:104BA00050E061E080E394E00E94010241E050E0C7
:104BB00060E088E394E00E94010283E0B82E41E0C7
:104BC00050E063E080E494E00E94010240E050E0A5
:104BD00061E088E494E00E94010210925004109277
:104BE00051049AECC92E93E0D92E86E792E0909377
:104BF000CB038093CA0380E18093D10388E0809344
:104C0000D20389E08093D30380E190E00E94FB2AE5
:104C10009093CE038093CD0380E190E00E94FB2A25
:104C20009093D0038093CF038FEF8AB9229A84B1F7
:104C3000886284B9249880E58CBD81E08DBDC60171
:104C40000E9426088CE792E09093CB038093CA03DE
:104C50001092D6034EEF5FEF6FEF7FEF4093D903D3
:104C60005093DA036093DB037093DC0324E632E0B5
:104C70003093D5032093D403D092DE03C092DD039A
:104C800082E090E09093E6038093E503B092E9031D
:104C90001092EA03D093EC03C093EB03E5E0EE2E11
:104CA000F12CF092EE03E092ED0308EC10E010938B
:104CB000D8030093D7031092FB034093FE03509355
:104CC000FF0360930004709301043093FA03209370
:104CD000F903D0920304C092020490930B048093D2
:104CE0000A04B0920E0410920F04D0931104C093E2
:104CF0001004F0921304E09212041093FD03009349
:104D0000FC03C6010E94DD0981E297E19093B9039B
:104D10008093B8031092BB031092BA03D092BD03E4
:104D2000C092BC031092C1031092C0031092C20340
:104D30001092C303F092EE03E092ED031093D803B8
:104D40000093D703F0921304E09212041093FD0332
:104D50000093FC03D093EC03C093EB03D0931104B6
:104D6000C093100488E090E00E9491288093C203D1
:104D700087E090E00E94912821E030E0811102C09C
:104D800030E020E03093C1032093C00386E090E040
:104D90000E949128843008F047C08093C30360913B
:104DA000C3038AEC93E00E9454098EE194E00E94D0
:104DB000961681E090E090932704809326046EE19C
:104DC00074E088EB93E00E94D9080E94660289E0B3
:104DD00090E00E949928909353048093520483E1B9
:104DE0008093000181E18093060180930C0184E1AE
:104DF000809312018093180182E180931E0184E365
:104E00008093240180932A0185E38093300182E31B
:104E100080933601DF91CF911F910F91FF90EF901A
:104E2000DF90CF90BF90089583E0B7CFCF93DF930B
:104E300000D000D0CDB7DEB780916C008F6080933A
:104E40006C0080916B00816080936B0080916800A2
:104E5000836080936800789484B5826084BD84B553
:104E6000816084BD85B5826085BD85B5816085BD65
:104E700080916E00816080936E001092810080911D
:104E800081008260809381008091810081608093A5
:104E90008100809180008160809380008091B100CA
:104EA00084608093B1008091B00081608093B000F5
:104EB00080917A00846080937A0080917A00826089
:104EC00080937A0080917A008E7F80937A0080911F
:104ED0007A00806880937A001092C1008FEF8093EF
:104EE000B2008091B00082608093B0008091700029
:104EF0008260809370008091B10081608093B100E6
:104F000078940FB6F894A89580916000886180939A
:104F10006000109260000FBE88E19DE00FB6F8942B
:104F2000A895809360000FBE90936000FF24F394D7
:104F3000A895809199038823B1F01092990388E293
:104F400094E00E942E0B80E394E00E942E0B80E4FC
:104F500094E00E942E0B88E394E00E942E0B88E4DC
:104F600094E00E942E0B809197038823A1F088E2A1
:104F700094E00E94010B80E394E00E94010B80E426
:104F800094E00E94010B88E394E00E94010B88E406
:104F900094E00E94010B0E945A0269837A838B83FA
:104FA0009C83BE016F5F7F4F84ED93E00E94F90206
:104FB000BE016F5F7F4F89EF93E00E94F9020E946C
:104FC0005A0269837A838B839C8300912004109119
:104FD000210401151105A1F0D8018D919C91DC01EE
:104FE000ED91FC910280F381E02DBE016F5F7F4F58
:104FF00009958111F0925104F80102811381E9CFE2
:10500000009151041091500410FD12C011FF06C010
:105010008EE194E00E941D0981110AC012FF02C0B6
:10502000011106C013FF0CC08091480481FF08C025
:105030006EE174E088EB93E00E94D9080E9466025A
:105040001092970375CFCF93DF93CAECD3E08B8197
:105050009C810E94972B8D819E810E94972B8EE1CF
:1050600094E0DF91CF910C9473168F929F92AF9240
:10507000BF92CF92DF92EF92FF92CF93DF93EC013A
:10508000688179818A819B8161157105810591050E
:1050900021F464E279ED8BE597E02DE133EF41E017
:1050A00050E00E94C22849015A019B01AC01A7EAC5
:1050B000B1E40E94E1286B017C01ACEEB4EFA501E4
:1050C00094010E94EF28DC01CB018C0D9D1DAE1DCB
:1050D000BF1DB7FF03C00197A109B048888399831A
:1050E000AA83BB839F77DF91CF91FF90EF90DF90F2
:1050F000CF90BF90AF909F908F9008950E943528D9
:10510000089582E491E00E9435280895B0E0A0E07F
:105110008093420190934301A0934401B0934501D1
:105120000895F999FECF92BD81BDF89A992780B56F
:105130000895A8E1B0E042E050E00C94B428262F96
:10514000F999FECF1FBA92BD81BD20BD0FB6F8946C
:10515000FA9AF99A0FBE019608950E949F28272F68
:105160000C94A028DC01CB01FC01F999FECF06C00C
:10517000F2BDE1BDF89A319600B40D924150504015
:10518000B8F70895052E97FB1EF400940E94D928C5
:1051900057FD07D00E94F42807FC03D04EF40C946E
:1051A000D92850954095309521953F4F4F4F5F4FEF
:1051B000089590958095709561957F4F8F4F9F4F83
:1051C00008950E941629A59F900DB49F900DA49F4D
:1051D000800D911D11240895B7FF0C94E1280E94C1
:1051E000E128821B930B0895A1E21A2EAA1BBB1B78
:1051F000FD010DC0AA1FBB1FEE1FFF1FA217B307A3
:10520000E407F50720F0A21BB30BE40BF50B661FB8
:10521000771F881F991F1A9469F76095709580957C
:1052200090959B01AC01BD01CF010895A29FB001F3
:10523000B39FC001A39F700D811D1124911DB29FCA
:10524000700D811D1124911D0895991B79E004C0F2
:10525000991F961708F0961B881F7A95C9F78095B5
:10526000089597FB072E16F4009407D077FD09D018
:105270000E944B2907FC05D03EF4909581959F4FE5
:105280000895709561957F4F0895EE0FFF1F05906B
:10529000F491E02D0994AA1BBB1B51E107C0AA1F82
:1052A000BB1FA617B70710F0A61BB70B881F991FC7
:1052B0005A95A9F780959095BC01CD0108950E945B
:1052C00073290C94542A0E944D2A58F00E94462AB1
:1052D00040F029F45F3F29F00C943D2A51110C94C1
:1052E000882A0C94432A0E94652A68F39923B1F313
:1052F000552391F3951B550BBB27AA2762177307FC
:10530000840738F09F5F5F4F220F331F441FAA1F8F
:10531000A9F335D00E2E3AF0E0E832D0915050404B
:10532000E695001CCAF72BD0FE2F29D0660F771FF9
:10533000881FBB1F261737074807AB07B0E809F0DF
:10534000BB0B802DBF01FF2793585F4F3AF09E3F64
:10535000510578F00C943D2A0C94882A5F3FE4F3C1
:10536000983ED4F3869577956795B795F7959F5FA7
:10537000C9F7880F911D9695879597F90895E1E0F3
:10538000660F771F881FBB1F621773078407BA0752
:1053900020F0621B730B840BBA0BEE1F88F7E095AD
:1053A00008950E946D2A88F09F5798F0B92F992789
:1053B000B751B0F0E1F0660F771F881F991F1AF000
:1053C000BA95C9F714C0B13091F00E94872AB1E0B4
:1053D00008950C94872A672F782F8827B85F39F0B3
:1053E000B93FCCF3869577956795B395D9F73EF499
:1053F00090958095709561957F4F8F4F9F4F089541
:10540000E89409C097FB3EF490958095709561955E
:105410007F4F8F4F9F4F9923A9F0F92F96E9BB2714
:105420009395F695879577956795B795F111F8CF90
:10543000FAF4BB0F11F460FF1BC06F5F7F4F8F4FFB
:105440009F4F16C0882311F096E911C0772321F0F1
:105450009EE8872F762F05C0662371F096E8862F89
:1054600070E060E02AF09A95660F771F881FDAF7E0
:10547000880F9695879597F9089597F99F6780E823
:1054800070E060E008959FEF80EC089500240A9496
:105490001616170618060906089500240A9412160F
:1054A0001306140605060895092E0394000C11F442
:1054B000882352F0BB0F40F4BF2B11F460FF04C0EF
:1054C0006F5F7F4F8F4F9F4F089557FD9058440F48
:1054D000551F59F05F3F71F04795880F97FB991F53
:1054E00061F09F3F79F08795089512161306140610
:1054F000551FF2CF4695F1DF08C01616170618069D
:10550000991FF1CF86957105610508940895E89477
:10551000BB2766277727CB0197F908950E94A12A18
:105520000C94542A0E94462A38F00E944D2A20F0FA
:10553000952311F00C943D2A0C94432A11240C94C9
:10554000882A0E94652A70F3959FC1F3950F50E059
:10555000551F629FF001729FBB27F00DB11D639F25
:10556000AA27F00DB11DAA1F649F6627B00DA11DCB
:10557000661F829F2227B00DA11D621F739FB00D71
:10558000A11D621F839FA00D611D221F749F3327E1
:10559000A00D611D231F849F600D211D822F762F7A
:1055A0006A2F11249F5750409AF0F1F088234AF057
:1055B000EE0FFF1FBB1F661F771F881F91505040C3
:1055C000A9F79E3F510580F00C943D2A0C94882A3F
:1055D0005F3FE4F3983ED4F3869577956795B7954A
:1055E000F795E7959F5FC1F7FE2B880F911D969564
:1055F000879597F908950F931F93CF93DF93823088
:10560000910510F482E090E0E0915604F091570487
:1056100030E020E0B0E0A0E0309799F421153105AA
:1056200009F44AC0281B390B24303105D8F58A818A
:105630009B816115710589F1FB0193838283FE01D2
:1056400011C0408151810281138148175907E0F050
:105650004817590799F4109761F012960C93129716
:1056600013961C933296CF01DF91CF911F910F912A
:1056700008950093560410935704F4CF2115310573
:1056800051F04217530738F0A901DB019A01BD011F
:10569000DF01F801C1CFEF01F9CF90935704809358
:1056A0005604CDCFFE01E20FF31F81939193225058
:1056B000310939832883D7CF209154043091550480
:1056C000232B41F420914801309149013093550436
:1056D0002093540420914601309147012115310552
:1056E00041F42DB73EB740914A0150914B01241B24
:1056F000350BE0915404F0915504E217F307A0F440
:105700002E1B3F0B2817390778F0AC014E5F5F4F17
:105710002417350748F04E0F5F1F509355044093F0
:105720005404819391939FCFF0E0E0E09CCFCF931E
:10573000DF930097E9F0FC01329713821282A09167
:105740005604B0915704ED0130E020E01097A1F429
:1057500020813181820F931F209154043091550490
:105760002817390709F061C0F0935504E0935404F9
:10577000DF91CF910895EA01CE17DF07E8F54A815E
:105780005B819E0141155105B1F7E901FB83EA8375
:1057900049915991C40FD51FEC17FD0761F4808121
:1057A00091810296840F951FE901998388838281F4
:1057B00093819B838A83F0E0E0E012968D919C9127
:1057C00013970097B9F52D913C911197CD01029651
:1057D000820F931F209154043091550428173907E4
:1057E00039F6309751F51092570410925604B09341
:1057F0005504A0935404BCCFD383C283408151810C
:10580000840F951FC817D90761F44E5F5F4F8881D9
:105810009981480F591F518340838A819B819383CB
:1058200082832115310509F0B0CFF0935704E0933E
:1058300056049ECFFD01DC01C0CF13821282D7CF68
:1058400011E0C6EDD1E004C0FE010E944529219679
:0A585000C73DD107C9F7F894FFCF58
:10585A0000E7C381000000AA000000000055000014
:10586A00000000760081000000852008820000E721
:10587A0081000000007755555500001881C30000CB
:10588A0000604E481803000FC0000000000000002E
:10589A0000000100000000005804800064DCF5FFED
:1058AA0007060504030201000500020301040607B6
:1058BA00000000000A1D231D4C1C68154A094D09E9
:1058CA005109EA1D861DB60C4B0AD80C0B031503A9
:1058DA0010380418201C08001F03280300003C3C51
:1058EA003C3C000036033603001C0800E3F7FFFFC8
:1058FA003D033D03005C04043C20203C4303430376
:10590A00916BD4410800081C520352031003E300B0
:10591A003C00810358035E0300122448241200004D
:10592A006E037903000090583513070084038D0332
:10593A0000FF818181FF60200000000006150B1521
:10594A00C90E6815F204030551090B22F4219F0CB4
:10595A0006094F0B000000009914B514180E6815BB
:10596A000005FC0451091E0D321E760C310A9408FA
:10597A0000000000121417147D0D6815F904F504CF
:10598A0051096E12F2114B0C23134008000000005B
:10599A00FE0A5E0A9F021B0A170A270A260A000045
:1059AA000000FE0AF9029F02EF02C202270A260A33
:1059BA0000000000FE0AF9029F02EF02C202270A53
:1059CA005307000000006F050000000054097265CB
:1059DA007365742073636F726573004869676873CF
:1059EA00636F726573207A75721C636B7365747A60
:1059FA00656E007265736574005A75721C636B7309
:105A0A0065747A656E00796F7520676F74206974A2
:105A1A00210047657363686166667421006E657765
:105A2A00206869676873636F726521004E657565E2
:105A3A0072204869676873636F7265210047616DF8
:105A4A0065204F76657200656E676C6973680044FD
:105A5A006575747363680045004400686967687314
:105A6A00636F7265004869676873636F7265007374
:105A7A00657474696E67730045696E7374656C6CDE
:105A8A00756E67656E0054657472697300536E6152
:105A9A006B6500537061636520496E766164657257
:105AAA007300446F646765007370656564004765D9
:105ABA0073636877696E6469676B6569740062729B
:105ACA00696768746E6573730048656C6C69676BA7
